{
  "_format": "hh-sol-artifact-1",
  "contractName": "InvestmentClub",
  "sourceName": "contracts/InvestmentClub.sol",
  "abi": [
    {
      "inputs": [],
      "stateMutability": "nonpayable",
      "type": "constructor"
    },
    {
      "inputs": [
        {
          "internalType": "uint256",
          "name": "clubId",
          "type": "uint256"
        },
        {
          "internalType": "uint256",
          "name": "proposalId",
          "type": "uint256"
        }
      ],
      "name": "closeProposal",
      "outputs": [],
      "stateMutability": "nonpayable",
      "type": "function"
    },
    {
      "inputs": [
        {
          "internalType": "uint256",
          "name": "clubId",
          "type": "uint256"
        }
      ],
      "name": "contributeToClub",
      "outputs": [],
      "stateMutability": "payable",
      "type": "function"
    },
    {
      "inputs": [
        {
          "internalType": "string",
          "name": "name",
          "type": "string"
        },
        {
          "internalType": "string",
          "name": "Cid",
          "type": "string"
        }
      ],
      "name": "createClub",
      "outputs": [
        {
          "internalType": "uint256",
          "name": "",
          "type": "uint256"
        }
      ],
      "stateMutability": "nonpayable",
      "type": "function"
    },
    {
      "inputs": [
        {
          "internalType": "uint256",
          "name": "clubId",
          "type": "uint256"
        },
        {
          "internalType": "uint256",
          "name": "amount",
          "type": "uint256"
        },
        {
          "internalType": "address",
          "name": "destination",
          "type": "address"
        },
        {
          "internalType": "string",
          "name": "description",
          "type": "string"
        },
        {
          "internalType": "string",
          "name": "Cid",
          "type": "string"
        }
      ],
      "name": "createProposal",
      "outputs": [],
      "stateMutability": "nonpayable",
      "type": "function"
    },
    {
      "inputs": [
        {
          "internalType": "uint256",
          "name": "clubId",
          "type": "uint256"
        },
        {
          "internalType": "uint256",
          "name": "proposalId",
          "type": "uint256"
        }
      ],
      "name": "executeProposal",
      "outputs": [],
      "stateMutability": "payable",
      "type": "function"
    },
    {
      "inputs": [
        {
          "internalType": "address",
          "name": "userAddress",
          "type": "address"
        },
        {
          "internalType": "uint256",
          "name": "clubId",
          "type": "uint256"
        }
      ],
      "name": "getBalanceByClub",
      "outputs": [
        {
          "internalType": "uint256",
          "name": "",
          "type": "uint256"
        }
      ],
      "stateMutability": "view",
      "type": "function"
    },
    {
      "inputs": [
        {
          "internalType": "uint256",
          "name": "clubId",
          "type": "uint256"
        },
        {
          "internalType": "uint256",
          "name": "proposalId",
          "type": "uint256"
        },
        {
          "internalType": "string",
          "name": "_Piece",
          "type": "string"
        },
        {
          "internalType": "string",
          "name": "_carsize",
          "type": "string"
        }
      ],
      "name": "getCarpiece",
      "outputs": [],
      "stateMutability": "nonpayable",
      "type": "function"
    },
    {
      "inputs": [
        {
          "internalType": "uint256",
          "name": "clubId",
          "type": "uint256"
        }
      ],
      "name": "getClubById",
      "outputs": [
        {
          "components": [
            {
              "internalType": "uint256",
              "name": "clubId",
              "type": "uint256"
            },
            {
              "internalType": "string",
              "name": "name",
              "type": "string"
            },
            {
              "internalType": "uint256",
              "name": "memberCount",
              "type": "uint256"
            },
            {
              "internalType": "uint256",
              "name": "proposalCount",
              "type": "uint256"
            },
            {
              "internalType": "uint256",
              "name": "pool",
              "type": "uint256"
            },
            {
              "internalType": "string",
              "name": "CID",
              "type": "string"
            },
            {
              "internalType": "string",
              "name": "posdiverification",
              "type": "string"
            },
            {
              "internalType": "uint256",
              "name": "DealId",
              "type": "uint256"
            }
          ],
          "internalType": "struct InvestmentClub.ClubInfo",
          "name": "",
          "type": "tuple"
        }
      ],
      "stateMutability": "view",
      "type": "function"
    },
    {
      "inputs": [],
      "name": "getMyClubs",
      "outputs": [
        {
          "components": [
            {
              "internalType": "uint256",
              "name": "clubId",
              "type": "uint256"
            },
            {
              "internalType": "string",
              "name": "name",
              "type": "string"
            },
            {
              "internalType": "uint256",
              "name": "memberCount",
              "type": "uint256"
            },
            {
              "internalType": "uint256",
              "name": "proposalCount",
              "type": "uint256"
            },
            {
              "internalType": "uint256",
              "name": "pool",
              "type": "uint256"
            },
            {
              "internalType": "string",
              "name": "CID",
              "type": "string"
            },
            {
              "internalType": "string",
              "name": "posdiverification",
              "type": "string"
            },
            {
              "internalType": "uint256",
              "name": "DealId",
              "type": "uint256"
            }
          ],
          "internalType": "struct InvestmentClub.ClubInfo[]",
          "name": "",
          "type": "tuple[]"
        }
      ],
      "stateMutability": "view",
      "type": "function"
    },
    {
      "inputs": [
        {
          "internalType": "uint256",
          "name": "clubId",
          "type": "uint256"
        },
        {
          "internalType": "uint256",
          "name": "proposalId",
          "type": "uint256"
        }
      ],
      "name": "getProposalById",
      "outputs": [
        {
          "components": [
            {
              "internalType": "uint256",
              "name": "id",
              "type": "uint256"
            },
            {
              "internalType": "address",
              "name": "creator",
              "type": "address"
            },
            {
              "internalType": "uint256",
              "name": "amount",
              "type": "uint256"
            },
            {
              "internalType": "address",
              "name": "destination",
              "type": "address"
            },
            {
              "internalType": "string",
              "name": "status",
              "type": "string"
            },
            {
              "internalType": "string",
              "name": "description",
              "type": "string"
            },
            {
              "internalType": "uint256",
              "name": "votesFor",
              "type": "uint256"
            },
            {
              "internalType": "uint256",
              "name": "votesAgainst",
              "type": "uint256"
            },
            {
              "internalType": "uint256",
              "name": "proposedAt",
              "type": "uint256"
            },
            {
              "internalType": "uint256",
              "name": "proposalExpireAt",
              "type": "uint256"
            },
            {
              "internalType": "string",
              "name": "Cid",
              "type": "string"
            },
            {
              "internalType": "string",
              "name": "PieceCid",
              "type": "string"
            },
            {
              "internalType": "string",
              "name": "carsize",
              "type": "string"
            },
            {
              "internalType": "string",
              "name": "posdiverification",
              "type": "string"
            },
            {
              "internalType": "string",
              "name": "storageProvider",
              "type": "string"
            },
            {
              "internalType": "uint256",
              "name": "DealId",
              "type": "uint256"
            }
          ],
          "internalType": "struct InvestmentClub.ProposalInfo",
          "name": "",
          "type": "tuple"
        }
      ],
      "stateMutability": "view",
      "type": "function"
    },
    {
      "inputs": [
        {
          "internalType": "uint256",
          "name": "clubId",
          "type": "uint256"
        }
      ],
      "name": "getProposalsByClub",
      "outputs": [
        {
          "components": [
            {
              "internalType": "uint256",
              "name": "id",
              "type": "uint256"
            },
            {
              "internalType": "address",
              "name": "creator",
              "type": "address"
            },
            {
              "internalType": "uint256",
              "name": "amount",
              "type": "uint256"
            },
            {
              "internalType": "address",
              "name": "destination",
              "type": "address"
            },
            {
              "internalType": "string",
              "name": "status",
              "type": "string"
            },
            {
              "internalType": "string",
              "name": "description",
              "type": "string"
            },
            {
              "internalType": "uint256",
              "name": "votesFor",
              "type": "uint256"
            },
            {
              "internalType": "uint256",
              "name": "votesAgainst",
              "type": "uint256"
            },
            {
              "internalType": "uint256",
              "name": "proposedAt",
              "type": "uint256"
            },
            {
              "internalType": "uint256",
              "name": "proposalExpireAt",
              "type": "uint256"
            },
            {
              "internalType": "string",
              "name": "Cid",
              "type": "string"
            },
            {
              "internalType": "string",
              "name": "PieceCid",
              "type": "string"
            },
            {
              "internalType": "string",
              "name": "carsize",
              "type": "string"
            },
            {
              "internalType": "string",
              "name": "posdiverification",
              "type": "string"
            },
            {
              "internalType": "string",
              "name": "storageProvider",
              "type": "string"
            },
            {
              "internalType": "uint256",
              "name": "DealId",
              "type": "uint256"
            }
          ],
          "internalType": "struct InvestmentClub.ProposalInfo[]",
          "name": "",
          "type": "tuple[]"
        }
      ],
      "stateMutability": "view",
      "type": "function"
    },
    {
      "inputs": [
        {
          "internalType": "uint256",
          "name": "clubId",
          "type": "uint256"
        },
        {
          "internalType": "uint256",
          "name": "proposalId",
          "type": "uint256"
        },
        {
          "internalType": "uint256",
          "name": "_dealId",
          "type": "uint256"
        },
        {
          "internalType": "string",
          "name": "_storage",
          "type": "string"
        }
      ],
      "name": "getdelandstorgae",
      "outputs": [],
      "stateMutability": "nonpayable",
      "type": "function"
    },
    {
      "inputs": [
        {
          "internalType": "address",
          "name": "sender",
          "type": "address"
        },
        {
          "internalType": "uint256",
          "name": "proposalId",
          "type": "uint256"
        },
        {
          "internalType": "uint256",
          "name": "clubId",
          "type": "uint256"
        }
      ],
      "name": "hasVoted",
      "outputs": [
        {
          "internalType": "bool",
          "name": "",
          "type": "bool"
        }
      ],
      "stateMutability": "view",
      "type": "function"
    },
    {
      "inputs": [
        {
          "internalType": "uint256",
          "name": "clubId",
          "type": "uint256"
        }
      ],
      "name": "isClubFull",
      "outputs": [
        {
          "internalType": "bool",
          "name": "",
          "type": "bool"
        }
      ],
      "stateMutability": "view",
      "type": "function"
    },
    {
      "inputs": [
        {
          "internalType": "uint256",
          "name": "clubId",
          "type": "uint256"
        }
      ],
      "name": "isClubIdExist",
      "outputs": [
        {
          "internalType": "bool",
          "name": "",
          "type": "bool"
        }
      ],
      "stateMutability": "view",
      "type": "function"
    },
    {
      "inputs": [
        {
          "internalType": "address",
          "name": "memberAddress",
          "type": "address"
        },
        {
          "internalType": "uint256",
          "name": "clubId",
          "type": "uint256"
        }
      ],
      "name": "isMemberOfClub",
      "outputs": [
        {
          "internalType": "bool",
          "name": "",
          "type": "bool"
        }
      ],
      "stateMutability": "view",
      "type": "function"
    },
    {
      "inputs": [
        {
          "internalType": "uint256",
          "name": "proposalId",
          "type": "uint256"
        },
        {
          "internalType": "uint256",
          "name": "clubId",
          "type": "uint256"
        }
      ],
      "name": "isProposalIdExist",
      "outputs": [
        {
          "internalType": "bool",
          "name": "",
          "type": "bool"
        }
      ],
      "stateMutability": "view",
      "type": "function"
    },
    {
      "inputs": [
        {
          "internalType": "uint256",
          "name": "clubId",
          "type": "uint256"
        },
        {
          "internalType": "uint256",
          "name": "proposalId",
          "type": "uint256"
        }
      ],
      "name": "isVotingOn",
      "outputs": [
        {
          "internalType": "bool",
          "name": "",
          "type": "bool"
        }
      ],
      "stateMutability": "view",
      "type": "function"
    },
    {
      "inputs": [
        {
          "internalType": "uint256",
          "name": "clubId",
          "type": "uint256"
        }
      ],
      "name": "joinClub",
      "outputs": [],
      "stateMutability": "nonpayable",
      "type": "function"
    },
    {
      "inputs": [
        {
          "internalType": "uint256",
          "name": "clubId",
          "type": "uint256"
        }
      ],
      "name": "leaveClub",
      "outputs": [],
      "stateMutability": "nonpayable",
      "type": "function"
    },
    {
      "inputs": [],
      "name": "listClubs",
      "outputs": [
        {
          "components": [
            {
              "internalType": "uint256",
              "name": "clubId",
              "type": "uint256"
            },
            {
              "internalType": "string",
              "name": "name",
              "type": "string"
            },
            {
              "internalType": "uint256",
              "name": "memberCount",
              "type": "uint256"
            },
            {
              "internalType": "uint256",
              "name": "proposalCount",
              "type": "uint256"
            },
            {
              "internalType": "uint256",
              "name": "pool",
              "type": "uint256"
            },
            {
              "internalType": "string",
              "name": "CID",
              "type": "string"
            },
            {
              "internalType": "string",
              "name": "posdiverification",
              "type": "string"
            },
            {
              "internalType": "uint256",
              "name": "DealId",
              "type": "uint256"
            }
          ],
          "internalType": "struct InvestmentClub.ClubInfo[]",
          "name": "",
          "type": "tuple[]"
        }
      ],
      "stateMutability": "view",
      "type": "function"
    },
    {
      "inputs": [
        {
          "internalType": "uint256",
          "name": "clubId",
          "type": "uint256"
        },
        {
          "internalType": "uint256",
          "name": "proposalId",
          "type": "uint256"
        }
      ],
      "name": "proverifiydocs",
      "outputs": [],
      "stateMutability": "nonpayable",
      "type": "function"
    },
    {
      "inputs": [
        {
          "internalType": "uint256",
          "name": "clubId",
          "type": "uint256"
        }
      ],
      "name": "verifiydocs",
      "outputs": [],
      "stateMutability": "nonpayable",
      "type": "function"
    },
    {
      "inputs": [
        {
          "internalType": "uint256",
          "name": "clubId",
          "type": "uint256"
        },
        {
          "internalType": "uint256",
          "name": "proposalId",
          "type": "uint256"
        },
        {
          "internalType": "bool",
          "name": "vote",
          "type": "bool"
        }
      ],
      "name": "voteOnProposal",
      "outputs": [],
      "stateMutability": "nonpayable",
      "type": "function"
    }
  ],
  "bytecode": "0x608060405234801561001057600080fd5b506000600181905550614c53806100286000396000f3fe60806040526004361061014b5760003560e01c8063647e598b116100b6578063ab7ca3481161006f578063ab7ca348146104a8578063c3741fed146104e5578063c467087814610522578063e15427421461055f578063e7613ea814610588578063eec8e0db146105b15761014b565b8063647e598b1461038a5780636764fd48146103b357806382b7661b146103f0578063890e24561461041957806389972a32146104565780639d9087b91461047f5761014b565b806334fa3d831161010857806334fa3d831461026857806335a1930f146102a55780634d7f75c3146102e2578063549710be1461030b57806354a2e233146103365780635ff847fb1461035f5761014b565b8063058694a9146101505780630ee294041461018d5780631063fd19146101ca57806314204fc6146101f35780631ab7671214610230578063288509b41461024c575b600080fd5b34801561015c57600080fd5b506101776004803603810190610172919061310d565b6105ee565b604051610184919061345e565b60405180910390f35b34801561019957600080fd5b506101b460048036038101906101af91906134ac565b610bf0565b6040516101c1919061351a565b60405180910390f35b3480156101d657600080fd5b506101f160048036038101906101ec919061366a565b610c6f565b005b3480156101ff57600080fd5b5061021a600480360381019061021591906136ed565b610cbb565b60405161022791906138af565b60405180910390f35b61024a600480360381019061024591906136ed565b61125b565b005b6102666004803603810190610261919061310d565b611567565b005b34801561027457600080fd5b5061028f600480360381019061028a91906138d1565b6116d1565b60405161029c919061351a565b60405180910390f35b3480156102b157600080fd5b506102cc60048036038101906102c79190613911565b611780565b6040516102d99190613998565b60405180910390f35b3480156102ee57600080fd5b506103096004803603810190610304919061310d565b611914565b005b34801561031757600080fd5b50610320611a4e565b60405161032d9190613b33565b60405180910390f35b34801561034257600080fd5b5061035d60048036038101906103589190613b81565b611d20565b005b34801561036b57600080fd5b50610374611ff7565b6040516103819190613b33565b60405180910390f35b34801561039657600080fd5b506103b160048036038101906103ac9190613bd4565b6122ae565b005b3480156103bf57600080fd5b506103da60048036038101906103d5919061310d565b612303565b6040516103e7919061351a565b60405180910390f35b3480156103fc57600080fd5b506104176004803603810190610412919061310d565b612325565b005b34801561042557600080fd5b50610440600480360381019061043b91906138d1565b6123ce565b60405161044d9190613998565b60405180910390f35b34801561046257600080fd5b5061047d60048036038101906104789190613c73565b612439565b005b34801561048b57600080fd5b506104a660048036038101906104a191906136ed565b6127d1565b005b3480156104b457600080fd5b506104cf60048036038101906104ca91906136ed565b612847565b6040516104dc919061351a565b60405180910390f35b3480156104f157600080fd5b5061050c6004803603810190610507919061310d565b612882565b6040516105199190613de4565b60405180910390f35b34801561052e57600080fd5b506105496004803603810190610544919061310d565b612ae8565b604051610556919061351a565b60405180910390f35b34801561056b57600080fd5b506105866004803603810190610581919061310d565b612b0a565b005b34801561059457600080fd5b506105af60048036038101906105aa91906136ed565b612ce1565b005b3480156105bd57600080fd5b506105d860048036038101906105d391906136ed565b612f11565b6040516105e5919061351a565b60405180910390f35b60606105f982612303565b610638576040517f08c379a000000000000000000000000000000000000000000000000000000000815260040161062f90613e63565b60405180910390fd5b600080600084815260200190815260200160002090506000816006015467ffffffffffffffff81111561066e5761066d61353f565b5b6040519080825280602002602001820160405280156106a757816020015b610694612fd5565b81526020019060019003908161068c5790505b509050600080600190505b83600601548111610be45760008460050160008381526020019081526020016000209050604051806102000160405280826000015481526020018260010160009054906101000a900473ffffffffffffffffffffffffffffffffffffffff1673ffffffffffffffffffffffffffffffffffffffff168152602001826002015481526020018260030160009054906101000a900473ffffffffffffffffffffffffffffffffffffffff1673ffffffffffffffffffffffffffffffffffffffff16815260200182600401805461078590613eb2565b80601f01602080910402602001604051908101604052809291908181526020018280546107b190613eb2565b80156107fe5780601f106107d3576101008083540402835291602001916107fe565b820191906000526020600020905b8154815290600101906020018083116107e157829003601f168201915b5050505050815260200182600501805461081790613eb2565b80601f016020809104026020016040519081016040528092919081815260200182805461084390613eb2565b80156108905780601f1061086557610100808354040283529160200191610890565b820191906000526020600020905b81548152906001019060200180831161087357829003601f168201915b505050505081526020018260060154815260200182600701548152602001826008015481526020018260090154815260200182600a0180546108d190613eb2565b80601f01602080910402602001604051908101604052809291908181526020018280546108fd90613eb2565b801561094a5780601f1061091f5761010080835404028352916020019161094a565b820191906000526020600020905b81548152906001019060200180831161092d57829003601f168201915b5050505050815260200182600b01805461096390613eb2565b80601f016020809104026020016040519081016040528092919081815260200182805461098f90613eb2565b80156109dc5780601f106109b1576101008083540402835291602001916109dc565b820191906000526020600020905b8154815290600101906020018083116109bf57829003601f168201915b5050505050815260200182600c0180546109f590613eb2565b80601f0160208091040260200160405190810160405280929190818152602001828054610a2190613eb2565b8015610a6e5780601f10610a4357610100808354040283529160200191610a6e565b820191906000526020600020905b815481529060010190602001808311610a5157829003601f168201915b5050505050815260200182600d018054610a8790613eb2565b80601f0160208091040260200160405190810160405280929190818152602001828054610ab390613eb2565b8015610b005780601f10610ad557610100808354040283529160200191610b00565b820191906000526020600020905b815481529060010190602001808311610ae357829003601f168201915b5050505050815260200182600e018054610b1990613eb2565b80601f0160208091040260200160405190810160405280929190818152602001828054610b4590613eb2565b8015610b925780601f10610b6757610100808354040283529160200191610b92565b820191906000526020600020905b815481529060010190602001808311610b7557829003601f168201915b5050505050815260200182600f0154815250848481518110610bb757610bb6613ee3565b5b60200260200101819052508280610bcd90613f41565b935050508080610bdc90613f41565b9150506106b2565b50819350505050919050565b6000806000838152602001908152602001600020600501600084815260200190815260200160002060100160008573ffffffffffffffffffffffffffffffffffffffff1673ffffffffffffffffffffffffffffffffffffffff16815260200190815260200160002060009054906101000a900460ff1690509392505050565b6000806000868152602001908152602001600020600501600085815260200190815260200160002090508281600f01819055508181600e019081610cb39190614135565b505050505050565b610cc3612fd5565b610ccc83612303565b610d0b576040517f08c379a0000000000000000000000000000000000000000000000000000000008152600401610d0290614253565b60405180910390fd5b610d158284612f11565b610d54576040517f08c379a0000000000000000000000000000000000000000000000000000000008152600401610d4b906142bf565b60405180910390fd5b6000806000858152602001908152602001600020600501600084815260200190815260200160002090506000604051806102000160405280836000015481526020018360010160009054906101000a900473ffffffffffffffffffffffffffffffffffffffff1673ffffffffffffffffffffffffffffffffffffffff168152602001836002015481526020018360030160009054906101000a900473ffffffffffffffffffffffffffffffffffffffff1673ffffffffffffffffffffffffffffffffffffffff168152602001836004018054610e2f90613eb2565b80601f0160208091040260200160405190810160405280929190818152602001828054610e5b90613eb2565b8015610ea85780601f10610e7d57610100808354040283529160200191610ea8565b820191906000526020600020905b815481529060010190602001808311610e8b57829003601f168201915b50505050508152602001836005018054610ec190613eb2565b80601f0160208091040260200160405190810160405280929190818152602001828054610eed90613eb2565b8015610f3a5780601f10610f0f57610100808354040283529160200191610f3a565b820191906000526020600020905b815481529060010190602001808311610f1d57829003601f168201915b505050505081526020018360060154815260200183600701548152602001836008015481526020018360090154815260200183600a018054610f7b90613eb2565b80601f0160208091040260200160405190810160405280929190818152602001828054610fa790613eb2565b8015610ff45780601f10610fc957610100808354040283529160200191610ff4565b820191906000526020600020905b815481529060010190602001808311610fd757829003601f168201915b5050505050815260200183600b01805461100d90613eb2565b80601f016020809104026020016040519081016040528092919081815260200182805461103990613eb2565b80156110865780601f1061105b57610100808354040283529160200191611086565b820191906000526020600020905b81548152906001019060200180831161106957829003601f168201915b5050505050815260200183600c01805461109f90613eb2565b80601f01602080910402602001604051908101604052809291908181526020018280546110cb90613eb2565b80156111185780601f106110ed57610100808354040283529160200191611118565b820191906000526020600020905b8154815290600101906020018083116110fb57829003601f168201915b5050505050815260200183600d01805461113190613eb2565b80601f016020809104026020016040519081016040528092919081815260200182805461115d90613eb2565b80156111aa5780601f1061117f576101008083540402835291602001916111aa565b820191906000526020600020905b81548152906001019060200180831161118d57829003601f168201915b5050505050815260200183600e0180546111c390613eb2565b80601f01602080910402602001604051908101604052809291908181526020018280546111ef90613eb2565b801561123c5780601f106112115761010080835404028352916020019161123c565b820191906000526020600020905b81548152906001019060200180831161121f57829003601f168201915b5050505050815260200183600f01548152509050809250505092915050565b600080600084815260200190815260200160002090506000816005016000848152602001908152602001600020905061129384612303565b6112d2576040517f08c379a00000000000000000000000000000000000000000000000000000000081526004016112c990614253565b60405180910390fd5b6112dc33856116d1565b61131b576040517f08c379a00000000000000000000000000000000000000000000000000000000081526004016113129061432b565b60405180910390fd5b6113258385612f11565b611364576040517f08c379a000000000000000000000000000000000000000000000000000000000815260040161135b906142bf565b60405180910390fd5b61136e8484612f48565b6113ad576040517f08c379a00000000000000000000000000000000000000000000000000000000081526004016113a4906143bd565b60405180910390fd5b8060020154826004015410156113f8576040517f08c379a00000000000000000000000000000000000000000000000000000000081526004016113ef9061444f565b60405180910390fd5b8060070154816006015411611442576040517f08c379a0000000000000000000000000000000000000000000000000000000008152600401611439906144e1565b60405180910390fd5b61144c8484612847565b1561148c576040517f08c379a000000000000000000000000000000000000000000000000000000000815260040161148390614573565b60405180910390fd5b6040518060400160405280600881526020017f45786563757465640000000000000000000000000000000000000000000000008152508160040190816114d29190614135565b5080600201548260040160008282546114eb9190614593565b925050819055508060030160009054906101000a900473ffffffffffffffffffffffffffffffffffffffff1673ffffffffffffffffffffffffffffffffffffffff166108fc82600201549081150290604051600060405180830381858888f19350505050158015611560573d6000803e3d6000fd5b5050505050565b61157081612303565b6115af576040517f08c379a00000000000000000000000000000000000000000000000000000000081526004016115a690614253565b60405180910390fd5b600080600083815260200190815260200160002090506115cf33836116d1565b61160e576040517f08c379a00000000000000000000000000000000000000000000000000000000081526004016116059061432b565b60405180910390fd5b60003411611651576040517f08c379a000000000000000000000000000000000000000000000000000000000815260040161164890614639565b60405180910390fd5b60008160020160003373ffffffffffffffffffffffffffffffffffffffff1673ffffffffffffffffffffffffffffffffffffffff1681526020019081526020016000209050348160010160008282546116aa9190614659565b92505081905550348260040160008282546116c59190614659565b92505081905550505050565b60008073ffffffffffffffffffffffffffffffffffffffff1660008084815260200190815260200160002060020160008573ffffffffffffffffffffffffffffffffffffffff1673ffffffffffffffffffffffffffffffffffffffff16815260200190815260200160002060000160009054906101000a900473ffffffffffffffffffffffffffffffffffffffff1673ffffffffffffffffffffffffffffffffffffffff161415905092915050565b600080600180546117919190614659565b905060008060008381526020019081526020016000209050818160000181905550848160010190816117c39190614135565b50600081600401819055506000816006018190555060018160030181905550838160070190816117f39190614135565b506040518060400160405280600b81526020017f556e2d566572696669656400000000000000000000000000000000000000000081525081600801908161183a9190614135565b50600060405180604001604052803373ffffffffffffffffffffffffffffffffffffffff16815260200160008152509050808260020160003373ffffffffffffffffffffffffffffffffffffffff1673ffffffffffffffffffffffffffffffffffffffff16815260200190815260200160002060008201518160000160006101000a81548173ffffffffffffffffffffffffffffffffffffffff021916908373ffffffffffffffffffffffffffffffffffffffff160217905550602082015181600101559050508260018190555082935050505092915050565b61191d81612303565b61195c576040517f08c379a000000000000000000000000000000000000000000000000000000000815260040161195390614253565b60405180910390fd5b6000806000838152602001908152602001600020905061197c33836116d1565b6119bb576040517f08c379a00000000000000000000000000000000000000000000000000000000081526004016119b29061432b565b60405180910390fd5b60018160030160008282546119d09190614593565b925050819055508060020160003373ffffffffffffffffffffffffffffffffffffffff1673ffffffffffffffffffffffffffffffffffffffff168152602001908152602001600020600080820160006101000a81549073ffffffffffffffffffffffffffffffffffffffff0219169055600182016000905550505050565b6060600060015467ffffffffffffffff811115611a6e57611a6d61353f565b5b604051908082528060200260200182016040528015611aa757816020015b611a9461307e565b815260200190600190039081611a8c5790505b509050600080600190505b6001548111611d175760008060008381526020019081526020016000209050611adf3382600001546116d1565b15611d035760405180610100016040528082600001548152602001826001018054611b0990613eb2565b80601f0160208091040260200160405190810160405280929190818152602001828054611b3590613eb2565b8015611b825780601f10611b5757610100808354040283529160200191611b82565b820191906000526020600020905b815481529060010190602001808311611b6557829003601f168201915b50505050508152602001826003015481526020018260060154815260200182600401548152602001826007018054611bb990613eb2565b80601f0160208091040260200160405190810160405280929190818152602001828054611be590613eb2565b8015611c325780601f10611c0757610100808354040283529160200191611c32565b820191906000526020600020905b815481529060010190602001808311611c1557829003601f168201915b50505050508152602001826008018054611c4b90613eb2565b80601f0160208091040260200160405190810160405280929190818152602001828054611c7790613eb2565b8015611cc45780601f10611c9957610100808354040283529160200191611cc4565b820191906000526020600020905b815481529060010190602001808311611ca757829003601f168201915b505050505081526020018260090154815250848481518110611ce957611ce8613ee3565b5b60200260200101819052508280611cff90613f41565b9350505b508080611d0f90613f41565b915050611ab2565b50819250505090565b611d2983612303565b611d68576040517f08c379a0000000000000000000000000000000000000000000000000000000008152600401611d5f90614253565b60405180910390fd5b611d728383612847565b611db1576040517f08c379a0000000000000000000000000000000000000000000000000000000008152600401611da8906146d9565b60405180910390fd5b60008060008581526020019081526020016000209050611dd133856116d1565b611e10576040517f08c379a0000000000000000000000000000000000000000000000000000000008152600401611e079061432b565b60405180910390fd5b611e1a8385612f11565b611e59576040517f08c379a0000000000000000000000000000000000000000000000000000000008152600401611e50906142bf565b60405180910390fd5b60008160050160008581526020019081526020016000209050611e7d338587610bf0565b15611ebd576040517f08c379a0000000000000000000000000000000000000000000000000000000008152600401611eb49061476b565b60405180910390fd5b6040518060400160405280600781526020017f50656e64696e67000000000000000000000000000000000000000000000000008152508051906020012081600401604051611f0b919061482e565b604051809103902014611f53576040517f08c379a0000000000000000000000000000000000000000000000000000000008152600401611f4a906148b7565b60405180910390fd5b828160100160003373ffffffffffffffffffffffffffffffffffffffff1673ffffffffffffffffffffffffffffffffffffffff16815260200190815260200160002060006101000a81548160ff0219169083151502179055508215611fd3576001816006016000828254611fc79190614659565b92505081905550611ff0565b6001816007016000828254611fe89190614659565b925050819055505b5050505050565b6060600060015467ffffffffffffffff8111156120175761201661353f565b5b60405190808252806020026020018201604052801561205057816020015b61203d61307e565b8152602001906001900390816120355790505b50905060005b6001548110156122a65760008060006001846120729190614659565b81526020019081526020016000209050604051806101000160405280826000015481526020018260010180546120a790613eb2565b80601f01602080910402602001604051908101604052809291908181526020018280546120d390613eb2565b80156121205780601f106120f557610100808354040283529160200191612120565b820191906000526020600020905b81548152906001019060200180831161210357829003601f168201915b5050505050815260200182600301548152602001826006015481526020018260040154815260200182600701805461215790613eb2565b80601f016020809104026020016040519081016040528092919081815260200182805461218390613eb2565b80156121d05780601f106121a5576101008083540402835291602001916121d0565b820191906000526020600020905b8154815290600101906020018083116121b357829003601f168201915b505050505081526020018260080180546121e990613eb2565b80601f016020809104026020016040519081016040528092919081815260200182805461221590613eb2565b80156122625780601f1061223757610100808354040283529160200191612262565b820191906000526020600020905b81548152906001019060200180831161224557829003601f168201915b50505050508152602001826009015481525083838151811061228757612286613ee3565b5b602002602001018190525050808061229e90613f41565b915050612056565b508091505090565b6000806000868152602001908152602001600020600501600085815260200190815260200160002090508281600b0190816122e99190614135565b508181600c0190816122fb9190614135565b505050505050565b6000806000808481526020019081526020016000206000015414159050919050565b61232e81612303565b61236d576040517f08c379a000000000000000000000000000000000000000000000000000000000815260040161236490614923565b60405180910390fd5b600080600083815260200190815260200160002090506040518060400160405280600881526020017f56657269666965640000000000000000000000000000000000000000000000008152508160080190816123c99190614135565b505050565b600080600080848152602001908152602001600020905060008160020160008673ffffffffffffffffffffffffffffffffffffffff1673ffffffffffffffffffffffffffffffffffffffff168152602001908152602001600020905080600101549250505092915050565b61244285612303565b612481576040517f08c379a000000000000000000000000000000000000000000000000000000000815260040161247890614253565b60405180910390fd5b600080600087815260200190815260200160002090506124a133876116d1565b6124e0576040517f08c379a00000000000000000000000000000000000000000000000000000000081526004016124d79061432b565b60405180910390fd5b60008511612523576040517f08c379a000000000000000000000000000000000000000000000000000000000815260040161251a906149b5565b60405180910390fd5b6000600182600601546125369190614659565b9050600080600089815260200190815260200160002060050160008381526020019081526020016000209050818160000181905550338160010160006101000a81548173ffffffffffffffffffffffffffffffffffffffff021916908373ffffffffffffffffffffffffffffffffffffffff160217905550868160020181905550858160030160006101000a81548173ffffffffffffffffffffffffffffffffffffffff021916908373ffffffffffffffffffffffffffffffffffffffff1602179055506040518060400160405280600781526020017f50656e64696e67000000000000000000000000000000000000000000000000008152508160040190816126409190614135565b50848160050190816126529190614135565b50600081600601819055506000816007018190555042816008018190555061012c4261267e9190614659565b81600901819055508381600a0190816126979190614135565b506040518060400160405280600a81526020017f494e2050726f636573730000000000000000000000000000000000000000000081525081600b0190816126de9190614135565b506040518060400160405280600a81526020017f494e2d50726f636573730000000000000000000000000000000000000000000081525081600c0190816127259190614135565b50600081600f01819055506040518060400160405280600a81526020017f494e2d50726f636573730000000000000000000000000000000000000000000081525081600e0190816127769190614135565b506040518060400160405280600b81526020017f556e2d566572696669656400000000000000000000000000000000000000000081525081600d0190816127bd9190614135565b508183600601819055505050505050505050565b6000806000848152602001908152602001600020600501600083815260200190815260200160002090506040518060400160405280600881526020017f566572696669656400000000000000000000000000000000000000000000000081525081600d0190816128419190614135565b50505050565b600080600080858152602001908152602001600020600501600084815260200190815260200160002090504281600901541191505092915050565b61288a61307e565b61289382612303565b6128d2576040517f08c379a00000000000000000000000000000000000000000000000000000000081526004016128c990614253565b60405180910390fd5b6000806000848152602001908152602001600020905060006040518061010001604052808360000154815260200183600101805461290f90613eb2565b80601f016020809104026020016040519081016040528092919081815260200182805461293b90613eb2565b80156129885780601f1061295d57610100808354040283529160200191612988565b820191906000526020600020905b81548152906001019060200180831161296b57829003601f168201915b505050505081526020018360030154815260200183600601548152602001836004015481526020018360070180546129bf90613eb2565b80601f01602080910402602001604051908101604052809291908181526020018280546129eb90613eb2565b8015612a385780601f10612a0d57610100808354040283529160200191612a38565b820191906000526020600020905b815481529060010190602001808311612a1b57829003601f168201915b50505050508152602001836008018054612a5190613eb2565b80601f0160208091040260200160405190810160405280929190818152602001828054612a7d90613eb2565b8015612aca5780601f10612a9f57610100808354040283529160200191612aca565b820191906000526020600020905b815481529060010190602001808311612aad57829003601f168201915b50505050508152602001836009015481525090508092505050919050565b6000606360008084815260200190815260200160002060030154109050919050565b612b1381612303565b612b52576040517f08c379a0000000000000000000000000000000000000000000000000000000008152600401612b4990614923565b60405180910390fd5b60008060008381526020019081526020016000209050612b7182612ae8565b612bb0576040517f08c379a0000000000000000000000000000000000000000000000000000000008152600401612ba790614a47565b60405180910390fd5b612bba33836116d1565b15612bfa576040517f08c379a0000000000000000000000000000000000000000000000000000000008152600401612bf190614ad9565b60405180910390fd5b600060405180604001604052803373ffffffffffffffffffffffffffffffffffffffff16815260200160008152509050808260020160003373ffffffffffffffffffffffffffffffffffffffff1673ffffffffffffffffffffffffffffffffffffffff16815260200190815260200160002060008201518160000160006101000a81548173ffffffffffffffffffffffffffffffffffffffff021916908373ffffffffffffffffffffffffffffffffffffffff160217905550602082015181600101559050506001826003016000828254612cd59190614659565b92505081905550505050565b612cea82612303565b612d29576040517f08c379a0000000000000000000000000000000000000000000000000000000008152600401612d2090614253565b60405180910390fd5b612d338183612f11565b612d72576040517f08c379a0000000000000000000000000000000000000000000000000000000008152600401612d69906142bf565b60405180910390fd5b612d7c8282612847565b15612dbc576040517f08c379a0000000000000000000000000000000000000000000000000000000008152600401612db390614573565b60405180910390fd5b6000806000848152602001908152602001600020600501600083815260200190815260200160002090506040518060400160405280600781526020017f50656e64696e67000000000000000000000000000000000000000000000000008152508051906020012081600401604051612e34919061482e565b604051809103902014612e7c576040517f08c379a0000000000000000000000000000000000000000000000000000000008152600401612e7390614b6b565b60405180910390fd5b612e868383612f48565b612ec5576040517f08c379a0000000000000000000000000000000000000000000000000000000008152600401612ebc90614bfd565b60405180910390fd5b6040518060400160405280600681526020017f436c6f7365640000000000000000000000000000000000000000000000000000815250816004019081612f0b9190614135565b50505050565b6000806000808481526020019081526020016000206005016000858152602001908152602001600020600001541415905092915050565b6000806000808581526020019081526020016000209050600081600501600085815260200190815260200160002090508060010160009054906101000a900473ffffffffffffffffffffffffffffffffffffffff1673ffffffffffffffffffffffffffffffffffffffff163373ffffffffffffffffffffffffffffffffffffffff16149250505092915050565b60405180610200016040528060008152602001600073ffffffffffffffffffffffffffffffffffffffff16815260200160008152602001600073ffffffffffffffffffffffffffffffffffffffff1681526020016060815260200160608152602001600081526020016000815260200160008152602001600081526020016060815260200160608152602001606081526020016060815260200160608152602001600081525090565b60405180610100016040528060008152602001606081526020016000815260200160008152602001600081526020016060815260200160608152602001600081525090565b6000604051905090565b600080fd5b600080fd5b6000819050919050565b6130ea816130d7565b81146130f557600080fd5b50565b600081359050613107816130e1565b92915050565b600060208284031215613123576131226130cd565b5b6000613131848285016130f8565b91505092915050565b600081519050919050565b600082825260208201905092915050565b6000819050602082019050919050565b61316f816130d7565b82525050565b600073ffffffffffffffffffffffffffffffffffffffff82169050919050565b60006131a082613175565b9050919050565b6131b081613195565b82525050565b600081519050919050565b600082825260208201905092915050565b60005b838110156131f05780820151818401526020810190506131d5565b60008484015250505050565b6000601f19601f8301169050919050565b6000613218826131b6565b61322281856131c1565b93506132328185602086016131d2565b61323b816131fc565b840191505092915050565b60006102008301600083015161325f6000860182613166565b50602083015161327260208601826131a7565b5060408301516132856040860182613166565b50606083015161329860608601826131a7565b50608083015184820360808601526132b0828261320d565b91505060a083015184820360a08601526132ca828261320d565b91505060c08301516132df60c0860182613166565b5060e08301516132f260e0860182613166565b50610100830151613307610100860182613166565b5061012083015161331c610120860182613166565b50610140830151848203610140860152613336828261320d565b915050610160830151848203610160860152613352828261320d565b91505061018083015184820361018086015261336e828261320d565b9150506101a08301518482036101a086015261338a828261320d565b9150506101c08301518482036101c08601526133a6828261320d565b9150506101e08301516133bd6101e0860182613166565b508091505092915050565b60006133d48383613246565b905092915050565b6000602082019050919050565b60006133f48261313a565b6133fe8185613145565b93508360208202850161341085613156565b8060005b8581101561344c578484038952815161342d85826133c8565b9450613438836133dc565b925060208a01995050600181019050613414565b50829750879550505050505092915050565b6000602082019050818103600083015261347881846133e9565b905092915050565b61348981613195565b811461349457600080fd5b50565b6000813590506134a681613480565b92915050565b6000806000606084860312156134c5576134c46130cd565b5b60006134d386828701613497565b93505060206134e4868287016130f8565b92505060406134f5868287016130f8565b9150509250925092565b60008115159050919050565b613514816134ff565b82525050565b600060208201905061352f600083018461350b565b92915050565b600080fd5b600080fd5b7f4e487b7100000000000000000000000000000000000000000000000000000000600052604160045260246000fd5b613577826131fc565b810181811067ffffffffffffffff821117156135965761359561353f565b5b80604052505050565b60006135a96130c3565b90506135b5828261356e565b919050565b600067ffffffffffffffff8211156135d5576135d461353f565b5b6135de826131fc565b9050602081019050919050565b82818337600083830152505050565b600061360d613608846135ba565b61359f565b9050828152602081018484840111156136295761362861353a565b5b6136348482856135eb565b509392505050565b600082601f83011261365157613650613535565b5b81356136618482602086016135fa565b91505092915050565b60008060008060808587031215613684576136836130cd565b5b6000613692878288016130f8565b94505060206136a3878288016130f8565b93505060406136b4878288016130f8565b925050606085013567ffffffffffffffff8111156136d5576136d46130d2565b5b6136e18782880161363c565b91505092959194509250565b60008060408385031215613704576137036130cd565b5b6000613712858286016130f8565b9250506020613723858286016130f8565b9150509250929050565b6000610200830160008301516137466000860182613166565b50602083015161375960208601826131a7565b50604083015161376c6040860182613166565b50606083015161377f60608601826131a7565b5060808301518482036080860152613797828261320d565b91505060a083015184820360a08601526137b1828261320d565b91505060c08301516137c660c0860182613166565b5060e08301516137d960e0860182613166565b506101008301516137ee610100860182613166565b50610120830151613803610120860182613166565b5061014083015184820361014086015261381d828261320d565b915050610160830151848203610160860152613839828261320d565b915050610180830151848203610180860152613855828261320d565b9150506101a08301518482036101a0860152613871828261320d565b9150506101c08301518482036101c086015261388d828261320d565b9150506101e08301516138a46101e0860182613166565b508091505092915050565b600060208201905081810360008301526138c9818461372d565b905092915050565b600080604083850312156138e8576138e76130cd565b5b60006138f685828601613497565b9250506020613907858286016130f8565b9150509250929050565b60008060408385031215613928576139276130cd565b5b600083013567ffffffffffffffff811115613946576139456130d2565b5b6139528582860161363c565b925050602083013567ffffffffffffffff811115613973576139726130d2565b5b61397f8582860161363c565b9150509250929050565b613992816130d7565b82525050565b60006020820190506139ad6000830184613989565b92915050565b600081519050919050565b600082825260208201905092915050565b6000819050602082019050919050565b6000610100830160008301516139f86000860182613166565b5060208301518482036020860152613a10828261320d565b9150506040830151613a256040860182613166565b506060830151613a386060860182613166565b506080830151613a4b6080860182613166565b5060a083015184820360a0860152613a63828261320d565b91505060c083015184820360c0860152613a7d828261320d565b91505060e0830151613a9260e0860182613166565b508091505092915050565b6000613aa983836139df565b905092915050565b6000602082019050919050565b6000613ac9826139b3565b613ad381856139be565b935083602082028501613ae5856139cf565b8060005b85811015613b215784840389528151613b028582613a9d565b9450613b0d83613ab1565b925060208a01995050600181019050613ae9565b50829750879550505050505092915050565b60006020820190508181036000830152613b4d8184613abe565b905092915050565b613b5e816134ff565b8114613b6957600080fd5b50565b600081359050613b7b81613b55565b92915050565b600080600060608486031215613b9a57613b996130cd565b5b6000613ba8868287016130f8565b9350506020613bb9868287016130f8565b9250506040613bca86828701613b6c565b9150509250925092565b60008060008060808587031215613bee57613bed6130cd565b5b6000613bfc878288016130f8565b9450506020613c0d878288016130f8565b935050604085013567ffffffffffffffff811115613c2e57613c2d6130d2565b5b613c3a8782880161363c565b925050606085013567ffffffffffffffff811115613c5b57613c5a6130d2565b5b613c678782880161363c565b91505092959194509250565b600080600080600060a08688031215613c8f57613c8e6130cd565b5b6000613c9d888289016130f8565b9550506020613cae888289016130f8565b9450506040613cbf88828901613497565b935050606086013567ffffffffffffffff811115613ce057613cdf6130d2565b5b613cec8882890161363c565b925050608086013567ffffffffffffffff811115613d0d57613d0c6130d2565b5b613d198882890161363c565b9150509295509295909350565b600061010083016000830151613d3f6000860182613166565b5060208301518482036020860152613d57828261320d565b9150506040830151613d6c6040860182613166565b506060830151613d7f6060860182613166565b506080830151613d926080860182613166565b5060a083015184820360a0860152613daa828261320d565b91505060c083015184820360c0860152613dc4828261320d565b91505060e0830151613dd960e0860182613166565b508091505092915050565b60006020820190508181036000830152613dfe8184613d26565b905092915050565b600082825260208201905092915050565b7f436c756220646f6573206e6f7420657869737400000000000000000000000000600082015250565b6000613e4d601383613e06565b9150613e5882613e17565b602082019050919050565b60006020820190508181036000830152613e7c81613e40565b9050919050565b7f4e487b7100000000000000000000000000000000000000000000000000000000600052602260045260246000fd5b60006002820490506001821680613eca57607f821691505b602082108103613edd57613edc613e83565b5b50919050565b7f4e487b7100000000000000000000000000000000000000000000000000000000600052603260045260246000fd5b7f4e487b7100000000000000000000000000000000000000000000000000000000600052601160045260246000fd5b6000613f4c826130d7565b91507fffffffffffffffffffffffffffffffffffffffffffffffffffffffffffffffff8203613f7e57613f7d613f12565b5b600182019050919050565b60008190508160005260206000209050919050565b60006020601f8301049050919050565b600082821b905092915050565b600060088302613feb7fffffffffffffffffffffffffffffffffffffffffffffffffffffffffffffffff82613fae565b613ff58683613fae565b95508019841693508086168417925050509392505050565b6000819050919050565b600061403261402d614028846130d7565b61400d565b6130d7565b9050919050565b6000819050919050565b61404c83614017565b61406061405882614039565b848454613fbb565b825550505050565b600090565b614075614068565b614080818484614043565b505050565b5b818110156140a45761409960008261406d565b600181019050614086565b5050565b601f8211156140e9576140ba81613f89565b6140c384613f9e565b810160208510156140d2578190505b6140e66140de85613f9e565b830182614085565b50505b505050565b600082821c905092915050565b600061410c600019846008026140ee565b1980831691505092915050565b600061412583836140fb565b9150826002028217905092915050565b61413e826131b6565b67ffffffffffffffff8111156141575761415661353f565b5b6141618254613eb2565b61416c8282856140a8565b600060209050601f83116001811461419f576000841561418d578287015190505b6141978582614119565b8655506141ff565b601f1984166141ad86613f89565b60005b828110156141d5578489015182556001820191506020850194506020810190506141b0565b868310156141f257848901516141ee601f8916826140fb565b8355505b6001600288020188555050505b505050505050565b7f74686520636c756220646f6573206e6f74206578697374000000000000000000600082015250565b600061423d601783613e06565b915061424882614207565b602082019050919050565b6000602082019050818103600083015261426c81614230565b9050919050565b7f5468652070726f706f73616c20646f6573206e6f742065786973740000000000600082015250565b60006142a9601b83613e06565b91506142b482614273565b602082019050919050565b600060208201905081810360008301526142d88161429c565b9050919050565b7f596f7520617265206e6f742061206d656d626572206f662074686520636c7562600082015250565b6000614315602083613e06565b9150614320826142df565b602082019050919050565b6000602082019050818103600083015261434481614308565b9050919050565b7f4f6e6c79207468652063726561746f72206f66207468652070726f706f73616c60008201527f2063616e20657865637574652069740000000000000000000000000000000000602082015250565b60006143a7602f83613e06565b91506143b28261434b565b604082019050919050565b600060208201905081810360008301526143d68161439a565b9050919050565b7f54686520616d6f756e7420657863656564732074686520706f6f6c206f66207460008201527f686520636c756200000000000000000000000000000000000000000000000000602082015250565b6000614439602783613e06565b9150614444826143dd565b604082019050919050565b600060208201905081810360008301526144688161442c565b9050919050565b7f5468652070726f706f73616c20686173206e6f74206265656e20617070726f7660008201527f6564000000000000000000000000000000000000000000000000000000000000602082015250565b60006144cb602283613e06565b91506144d68261446f565b604082019050919050565b600060208201905081810360008301526144fa816144be565b9050919050565b7f596f752063616e2774206265666f72652074686520566f74696e67206465616460008201527f6c696e6500000000000000000000000000000000000000000000000000000000602082015250565b600061455d602483613e06565b915061456882614501565b604082019050919050565b6000602082019050818103600083015261458c81614550565b9050919050565b600061459e826130d7565b91506145a9836130d7565b92508282039050818111156145c1576145c0613f12565b5b92915050565b7f596f75206d7573742073656e642045564d4f5320746f20636f6e74726962757460008201527f6500000000000000000000000000000000000000000000000000000000000000602082015250565b6000614623602183613e06565b915061462e826145c7565b604082019050919050565b6000602082019050818103600083015261465281614616565b9050919050565b6000614664826130d7565b915061466f836130d7565b925082820190508082111561468757614686613f12565b5b92915050565b7f566f74696e6720506572696f642046696e697368656400000000000000000000600082015250565b60006146c3601683613e06565b91506146ce8261468d565b602082019050919050565b600060208201905081810360008301526146f2816146b6565b9050919050565b7f596f75206861766520616c726561647920766f746564206f6e2074686973207060008201527f726f706f73616c00000000000000000000000000000000000000000000000000602082015250565b6000614755602783613e06565b9150614760826146f9565b604082019050919050565b6000602082019050818103600083015261478481614748565b9050919050565b600081905092915050565b60008190508160005260206000209050919050565b600081546147b881613eb2565b6147c2818661478b565b945060018216600081146147dd57600181146147f257614825565b60ff1983168652811515820286019350614825565b6147fb85614796565b60005b8381101561481d578154818901526001820191506020810190506147fe565b838801955050505b50505092915050565b600061483a82846147ab565b915081905092915050565b7f5468652070726f706f73616c206973206e6f206c6f6e6765722070656e64696e60008201527f6700000000000000000000000000000000000000000000000000000000000000602082015250565b60006148a1602183613e06565b91506148ac82614845565b604082019050919050565b600060208201905081810360008301526148d081614894565b9050919050565b7f54686520636c756220646f6573206e6f74206578697374000000000000000000600082015250565b600061490d601783613e06565b9150614918826148d7565b602082019050919050565b6000602082019050818103600083015261493c81614900565b9050919050565b7f54686520616d6f756e74206f66207468652070726f706f73616c206d7573742060008201527f62652067726561746572207468616e2030000000000000000000000000000000602082015250565b600061499f603183613e06565b91506149aa82614943565b604082019050919050565b600060208201905081810360008301526149ce81614992565b9050919050565b7f54686520636c75622069732066756c6c2c206e6f206d6f7265206d656d62657260008201527f732063616e206265206164646564000000000000000000000000000000000000602082015250565b6000614a31602e83613e06565b9150614a3c826149d5565b604082019050919050565b60006020820190508181036000830152614a6081614a24565b9050919050565b7f596f752061726520616c72656164792061206d656d626572206f66207468652060008201527f636c756200000000000000000000000000000000000000000000000000000000602082015250565b6000614ac3602483613e06565b9150614ace82614a67565b604082019050919050565b60006020820190508181036000830152614af281614ab6565b9050919050565b7f5468652070726f706f73616c206973206e6f7420696e2070656e64696e67207360008201527f7461747573000000000000000000000000000000000000000000000000000000602082015250565b6000614b55602583613e06565b9150614b6082614af9565b604082019050919050565b60006020820190508181036000830152614b8481614b48565b9050919050565b7f4f6e6c79207468652070726f706f73616c2063726561746f722063616e20636c60008201527f6f7365207468652070726f706f73616c00000000000000000000000000000000602082015250565b6000614be7603083613e06565b9150614bf282614b8b565b604082019050919050565b60006020820190508181036000830152614c1681614bda565b905091905056fea26469706673582212207494ed384bae2b8eaa34841fcedb06a153b8722026808ae0d3fc2fff9b50d3cd64736f6c63430008130033",
  "linkReferences": {},
  "deployedLinkReferences": {}
}